:100000000C94340018950000189500001895000015
:10001000189500001895000018950000189500002C
:10002000189500001895000018950000189500001C
:10003000189500001895000018950000189500000C
:100040000C940A01189500000C9474001895000097
:1000500018950000189500001895000018950000EC
:1000600018950000189500008FEF8DBFC4E7E4E7F6
:100070004E2E88E08EBFD8E0F7E05F2EA89584B7BB
:10008000082E877F84BF88E1992780936000909332
:100090006000EEEFF7E0A0E0B1E088278D933197A4
:1000A000E9F787E48093C40080E08093C50088E18D
:1000B0008093C1006624209A389A399A3A9A3B9ADA
:1000C000219A229A529A539A2D9A259A85E085BDB3
:1000D00080E084BD85E085BD7091C100706870933B
:1000E000C10078940C948F0D0F921F922F923F9223
:1000F0004F925F927F92AF92BF920F931F932F9375
:100100003F934F935F936F937F938F939F93AF939F
:10011000BF93CF93DF93EF93FF938FB78F93ADECA4
:10012000B5E08091C6008C9384E2482F0091CD0504
:10013000041711F00C94AC0070911101706470936D
:100140001101ADECB4E088278C9370916E007E7F36
:1001500070936E000C94EE000D3011F00C94D600EC
:10016000A1E1B1E08C9186FB16F00C94D400709163
:1001700011017F7B7093110180E0ADECB4E00E942F
:10018000540E8D9388278C93EDECF4E0AEECB5E043
:100190000E94C10F709111017062709311017091F2
:1001A0006E00716070936E000C94EE000F3118F0C9
:1001B00011F00C94DD000C94EE00A1E1B1E08C9103
:1001C00086FB16F00C94EE00ADECB5E08C91ADEC36
:1001D000B4E00E94540E8D9388278C938F918FBF2B
:1001E000FF91EF91DF91CF91BF91AF919F918F914F
:1001F0007F916F915F914F913F912F911F910F913F
:10020000BF90AF907F905F904F903F902F901F9046
:100210000F9018950F921F922F923F924F925F92DC
:100220007F92AF92BF920F931F932F933F934F9361
:100230005F936F937F938F939F93AF93BF93CF936E
:10024000DF93EF93FF938FB78F9373ED76BD00919C
:100250009402003011F00C943101409841980C94B4
:100260004701013011F00C943901409A41980C94E7
:100270004701023011F00C9441014098419A0C94CE
:100280004701033011F00C944701409A419AA4E9C8
:10029000B2E08C918F5F8C935A98299881E080937B
:1002A000950200919502003318F011F00C94A20110
:1002B000E2EFF6E1A5E9B2E08C919927A6E9B2E078
:1002C0000E94C40EA6E9B2E00D911C91A4E9B2E02F
:1002D0004D915527040F151FA6E9B2E00D931C930D
:1002E000A6E9B2E0AD90BD90A3E1B1E0AA0DBB1DBF
:1002F0008C91809313013B9A3A9A4298A3E1B1E022
:10030000119698E08E91983018F4392F992702C0F1
:1003100038E09850881F439808F4439A0000000082
:10032000429A000000004298000000003A9591F7C0
:10033000992341F7A5E9B2E08C918F5F8C9310F47B
:100340000C9451015B9A5B9881E080939502009137
:100350009502003318F011F00C94F801E4E5F7E190
:10036000A5E9B2E08C919927A6E9B2E00E94C40EFB
:10037000A6E9B2E00D911C91A4E9B2E04D91552798
:10038000040F151FA6E9B2E00D931C93A6E9B2E095
:10039000AD90BD90A3E1B1E0AA0DBB1D8C918093FF
:1003A00013013B9A3A9A4298A3E1B1E0119698E082
:1003B0008E91983018F4392F992702C038E0985060
:1003C000881F439808F4439A00000000429A0000F6
:1003D00000004298000000003A9591F7992341F7F8
:1003E000A5E9B2E08C918F5F8C9310F40C94A70177
:1003F0002A9A2A985A9A299AA4E9B2E00C9144E0E0
:100400000E94F10F8C93A8E9B2E08C918F5F8C93DE
:10041000A8E9B2E00C9140EF0E94F10F8C9300919B
:100420009802003011F00C941C0281E083B97091A5
:1004300011017068709311018F918FBFFF91EF913F
:10044000DF91CF91BF91AF919F918F917F916F91EC
:100450005F914F913F912F911F910F91BF90AF905E
:100460007F905F904F903F902F901F900F90189526
:10047000E4ECF0E20E94630E0E946A0EACE5B7E085
:10048000E0E0F1E20E94AE0E0E945B0E0E946A0E56
:10049000ACE5B7E0E4E1F1E20E94AE0E0E945B0E33
:1004A0000E946A0EE2E2F1E20E94630EEEE2F1E2E5
:1004B0000E94630E0E946A0EE0E3F1E20E94630E66
:1004C000EAE3F1E20E94630E0E946A0EEEE3F1E2BB
:1004D0000E94630EE8E4F1E20E94630E0E946A0E3D
:1004E000ECE4F1E20E94630EEEE5F1E20E94630E9D
:1004F0000E946A0EE2E6F1E20E94630EE4E7F1E296
:100500000E94630E0E946A0EE8E7F1E20E94630E09
:10051000E2E8F1E20E94630E0E946A0E81E090E040
:10052000AFE0B1E08D939C93AFE0B1E00D911C91F1
:10053000003851E0150718F011F00C94B0028FEF5D
:10054000AFE0B1E0AD90BD90A3E1B1E0AA0DBB1D5D
:100550008C93AFE0B1E00E940D0E10F40C94940265
:10056000E2E0F0E0AAEDB3E09AE00E94E70FE6E8EF
:10057000F1E20E94630EAAEDB3E00E945D0E0E94BC
:100580006A0EEAEDF3E0A1EAB3E00E94C10F81E058
:10059000E1EAF3E001E00A93AAE0B1E00E94C60FAD
:1005A000AAE0B1E00E945F0FA0E0B1E00C9380915F
:1005B0000001D2018C9381E00E949E0E8EE4D20154
:1005C0008C9381E00E949E0E0E943A04249682E061
:1005D0000E949A0E83E0E1EAF3E001E00A93AAE0C8
:1005E000B1E00E94C60FAAE0B1E00E945F0FA0E058
:1005F000B1E00C9380910001D2018C9381E00E94C4
:100600009E0E80E3D2018C9381E00E949E0E0E9498
:100610003A04249682E00E949A0E84E0E1EAF3E034
:1006200001E00A93AAE0B1E00E94C60FAAE0B1E09F
:100630000E945F0FA0E0B1E00C9380910001D20115
:100640008C9381E00E949E0E88E1D2018C9381E020
:100650000E949E0E0E943A04249682E00E949A0E06
:1006600085E0E1EAF3E001E00A93AAE0B1E00E944C
:10067000C60FAAE0B1E00E945F0FA0E0B1E00C93CA
:1006800080910001D2018C9381E00E949E0E82E055
:10069000D2018C9381E00E949E0E0E943A0424961F
:1006A00082E00E949A0E85E4D2018C9381E00E9440
:1006B0009E0E0E94D004229681E00E949A0E089518
:1006C00081E00E949E0E82E00E949E0E81E00E94C8
:1006D0009E0E82E00E949E0EA885B9850D911C9108
:1006E0004FEF5FEF04271527A885B9850D931C935D
:1006F000AA85BB858C9181508C93AA85BB850C9172
:1007000048E00E94F10FAE81BF818C93AA85BB8522
:100710008C91AC81BD818D9388278C93AC81BD81F8
:100720000D911C9148E050E00E943A0EAC81BD81D1
:100730004D935C93AC81BD810D911C9140E150E0E3
:100740000E94A40EAC81BD810D931C93AC81BD8130
:100750000E940D0E80E0AA81BB818C93AA81BB818F
:100760000C910F3018F011F00C94EF03AC81BD81A7
:100770000D911C91AA81BB814D915527040F151F26
:10078000A881B9810D931C93AA81BB818C91A88506
:10079000B9850E94E70E0E94DD0E0C900822689435
:1007A00009F4E894AE81BF818C91A881B981AD90A4
:1007B000BD90A3E1B1E0AA0DBB1D0E94E70E0E940F
:1007C000DD0E0C9016F0092201C0082A0C92AA81B5
:1007D000BB818C918F5F8C9310F40C94AE0386E0F8
:1007E000481A80E0580A28960895A8EDB3E00E94C0
:1007F0000D0EA8EDB3E00D911C9148E552E00E946A
:100800003A0EA8EDB3E00D931C93A8EDB3E00D9163
:100810001C91003050E0150711F00C943904EEE8FB
:10082000F1E20E94630E0E946A0EA6EDB3E00E9400
:100830000D0EE8E9F1E20E94630EE6EDF3E0ACE5AF
:10084000B7E00E94090F0E945B0E0E946A0E2D986D
:10085000E2EAF1E20E94630E0E946A0EE1E0F0E03B
:100860000E94740E2D9AECEAF1E20E94630E0E943F
:100870006A0E089581E00E949E0E81E00E949E0E05
:1008800081E00E949E0E81E00E949E0EAA85BB859B
:100890000C9142E1049FAA81BB810C92A885B98585
:1008A0000C9141E0041BA881B9810C9381E0AE81D9
:1008B000BF818C93AE81BF810C91023118F011F091
:1008C0000C94CA04AE81BF810C91A885B9854C9166
:1008D000040FA881B9810C93A881B9818C918150B2
:1008E0008C93AE81BF810C91AA81BB814C91040F86
:1008F000AC81BD810C93EAE6F9E1AC81BD818C91BC
:100900009927ADE0B1E00E94C40EA881B9818C9115
:10091000D2018C9381E00E949E0EADE0B1E0BA93CB
:10092000AA930E946003249681E00E949A0EAE81F1
:10093000BF810C91AA81BB814C91040FA0E0B1E072
:100940000C93E6EBF7E1AC81BD818C919927ADE08A
:10095000B1E00E94C40EA881B9818C91805A8C9319
:10096000A881B9818C91D2018C9381E00E949E0E66
:10097000ADE0B1E0BA93AA930E946003249681E0AF
:100980000E949A0EAE81BF818C918F5F8C9310F480
:100990000C945A0484E0481A80E0580A2896089576
:1009A00081E00E949E0E81E00E949E0E81E00E94E6
:1009B0009E0E81E00E949E0E80E0AA81BB818C93F6
:1009C000A885B9850C9141E0041BA881B9810C93DD
:1009D00081E0AE81BF818C93AE81BF810C910630E6
:1009E00018F011F00C945C05AE81BF810C91A885C4
:1009F000B9854C91040FA881B9810C93A881B98164
:100A00008C9181508C93AE81BF810C91AA81BB8166
:100A10004C91040FAC81BD810C93E8EFFAE1AC81FD
:100A2000BD818C919927ADE0B1E00E94C40EA881F0
:100A3000B9818C91D2018C9381E00E949E0EADE031
:100A4000B1E0BA93AA930E946003249681E00E94C9
:100A50009A0EAE81BF810C91AA81BB814C91040F8B
:100A6000A0E0B1E00C93E4E4F9E1AC81BD818C91AC
:100A70009927ADE0B1E00E94C40EA881B9818C91A4
:100A8000805A8C93A881B9818C91D2018C9381E09A
:100A90000E949E0EADE0B1E0BA93AA930E9460035B
:100AA000249681E00E949A0EAE81BF818C918F5F67
:100AB0008C9310F40C94EC0484E0481A80E0580AFB
:100AC00028960895E6EBF1E20E94630EAEECB5E0E5
:100AD0000E945D0E0E946A0EEEECF5E09CE204E1DD
:100AE00038E0A5E2B4E00E943B10A5EEB3E02C9301
:100AF000A5E2B4E00E940110082F063011F00C941A
:100B0000CE0AE5E2F4E0A9E9B2E00E94C10FE9E90A
:100B1000F2E0A9E9B2E00E94D10E8FEF8093A0032A
:100B2000A9E9B2E0EAEBF1E20E94071011F00C949F
:100B3000D005A0EAB2E0E2ECF1E20E94AE0EA1EA3A
:100B4000B3E0E0E0F1E20E94AE0EE1EAF3E0A0EAF9
:100B5000B2E00E94540E0E94C10FA0EAB2E00E94CF
:100B6000540EE6EDF1E20E94AE0EA1EAB3E0E4E13C
:100B7000F1E20E94AE0EE1EAF3E0A0EAB2E00E94E8
:100B8000540E0E94C10FA0EAB2E00E94540EE4EE9F
:100B9000F1E20E94AE0E80E08093A0030C94CC0A98
:100BA000E6EEF1E20E94071011F00C942D0680E0B1
:100BB0008093A003AAE3B4E00E945F0FADE0B1E030
:100BC0000D931C93ADE0B1E00D911C91013851E003
:100BD000150710F00C94280680E08093A003AFE482
:100BE000B4E00E94A70FA0E0B1E00C93A0E0B1E058
:100BF0008C918C939FEF89278C9380910001ADE0BD
:100C0000B1E0AD90BD90A3E1B1E0AA0DBB1D8C9306
:100C1000A0EAB2E0EEEEF1E20E94AE0EEDE0F1E00D
:100C2000A0EAB2E00E94540E0E94090FA0EAB2E0CE
:100C30000E94540EE8EFF1E20E94AE0EE0E0F1E017
:100C4000A0EAB2E00E94540E0E948E0F0C942B0674
:100C500085E08093A0030C94CC0AE0E0F2E20E94CD
:100C6000071011F00C94610680E08093A003A0EAC5
:100C7000B2E0E8E0F2E20E94AE0E81E090E0AFE088
:100C8000B1E08D939C93AFE0B1E00D911C910038E1
:100C900051E0150718F011F00C945F068FEFAFE0EC
:100CA000B1E0AD90BD90A3E1B1E0AA0DBB1D8C9366
:100CB000AFE0B1E00E940D0E10F40C9443060C94CA
:100CC000CC0AE8E1F2E20E94071011F00C94A806A9
:100CD0000091E503033011F00C94A30680E08093AB
:100CE000A003AAE3B4E00E945F0FA0E0B1E00C9380
:100CF000AFE4B4E00E945F0FA1E0B1E00C93A0EA82
:100D0000B2E0E0E2F2E20E94AE0EE0E0F1E0A0EA42
:100D1000B2E00E94540E0E94190F80910001D2018E
:100D20008C9381E00E949E0E80910101D2018C93F0
:100D300081E00E949E0E0E943A04249682E00E9466
:100D40009A0E0C94A60685E08093A0030C94CC0A1E
:100D5000EEE2F2E20E94071011F00C940E070091EF
:100D6000E503033011F00C940907AAE3B4E00E94F4
:100D70005F0FA0E0B1E00C9380E090E0ADE0B1E067
:100D80008D939C9300910001013C10F00C9404079A
:100D9000AFE4B4E00E94A70FADE0B1E00D931C9367
:100DA00080E08093A003A0EAB2E0E6E3F2E20E94D2
:100DB000AE0EE0E0F1E0A0EAB2E00E94540E0E9424
:100DC000190FA0EAB2E00E94540EECE4F2E20E9495
:100DD000AE0EEDE0F1E0A0EAB2E00E94540E0E94F7
:100DE000900F80910001D2018C9381E00E949E0EB1
:100DF000ADE0B1E0BA93AA930E946003249681E02B
:100E00000E949A0E0C94070785E08093A0030C942F
:100E10000C0784E08093A0030C94CC0AE0E5F2E296
:100E20000E94071011F00C944D0780E08093A003FE
:100E3000A0EAB2E0E8E5F2E20E94AE0E80E090E0C7
:100E4000ADE0B1E08D939C9381E08093000100912F
:100E50000001003C18F011F00C944B07ADE0B1E03C
:100E60000E940D0E80910001D2018C9381E00E94BE
:100E70009E0EADE0B1E0BA93AA930E94600324965F
:100E800081E00E949A0EA0E0B1E08C918F5F8C937C
:100E900010F40C9427070C94CC0AE4E6F2E20E94CA
:100EA000071011F00C9483070091E503023011F054
:100EB0000C947E07AAE3B4E00E945F0FA0E0B1E0CB
:100EC0000C9300910001013610F00C94790780E03A
:100ED0008093A00380910001D2018C9381E00E9455
:100EE0009E0E0E94D004229681E00E949A0E0C94DD
:100EF0007C0785E08093A0030C94810784E08093B5
:100F0000A0030C94CC0AECE6F2E20E94071011F068
:100F10000C94D5080091E503023011F00C94D00830
:100F2000EEECF5E096E204E133E0A6EEB3E00E94D9
:100F30003B10A1E0B1E02C9300910101023011F0CF
:100F40000C94CE08A6EEB3E00E945D0E0E946A0EDD
:100F5000ABEFB3E00E945D0E0E946A0EA6EEB3E016
:100F60000E940110ADE0B1E08D9388278C93ADE035
:100F7000B1E0ED91FC91A6EEB3E00E941B10A6E05B
:100F8000B1E00D931D932D933D93E6E0F1E0ACE5C8
:100F9000B7E00E940C0F0E945B0EE4E7F2E20E94B1
:100FA000630EE6E0F1E0ACE5B7E00E94920F0E942C
:100FB0005B0E0E946A0EABEFB3E00E94A70FA2E0A7
:100FC000B1E00D931D932D933D93E2E0F1E0ACE58C
:100FD000B7E00E940C0F0E945B0EE4E7F2E20E9471
:100FE000630EE2E0F1E0ACE5B7E00E94920F0E94F0
:100FF0005B0E0E946A0EA6E0B1E04D915D916D918D
:101000007C91A2E0B1E00D911D912D913C910E9447
:10101000F60E11F00C94C808AAE3B4E00E94011087
:10102000082F0E3011F00C94C308EAE3F4E0A1EAB3
:10103000B3E00E94C10F81E0E1EAF3E001E00A932E
:10104000AAE0B1E00E94C60FAAE0B1E00E945F0FE3
:10105000A0E0B1E00C9380910001D2018C9381E07B
:101060000E949E0E8EE4D2018C9381E00E949E0E1F
:101070000E943A04249682E00E949A0E83E0E1EAFC
:10108000F3E001E00A93AAE0B1E00E94C60FAAE0F3
:10109000B1E00E945F0FA0E0B1E00C9380910001ED
:1010A000D2018C9381E00E949E0E80E3D2018C934A
:1010B00081E00E949E0E0E943A04249682E00E94E3
:1010C0009A0E84E0E1EAF3E001E00A93AAE0B1E0DD
:1010D0000E94C60FAAE0B1E00E945F0FA0E0B1E05D
:1010E0000C9380910001D2018C9381E00E949E0EAE
:1010F00088E1D2018C9381E00E949E0E0E943A0406
:10110000249682E00E949A0E85E0E1EAF3E001E095
:101110000A93AAE0B1E00E94C60FAAE0B1E00E94E3
:101120005F0FA0E0B1E00C9380910001D2018C939D
:1011300081E00E949E0E82E0D2018C9381E00E94A9
:101140009E0E0E943A04249682E00E949A0E85E444
:10115000D2018C9381E00E949E0E0E94D0042296C0
:1011600081E00E949A0EA0EAB2E0E6E7F2E20E9475
:10117000AE0EEAE3F4E0A0EAB2E00E94540E0E9450
:10118000C10F0C94C60885E08093A0030C94CE0890
:10119000ECE7F2E20E94630E0E946A0E0C94D30800
:1011A00084E08093A0030C94CC0AE2E8F2E20E946F
:1011B000071011F00C94DB090091E503023011F0E7
:1011C0000C94D609AAE3B4E00E940110082F053060
:1011D00011F00C94D10980E08093A003EAE3F4E0DD
:1011E000A1EAB3E00E94C10F81E0E1EAF3E001E08F
:1011F0000A93AAE0B1E00E94C60FAAE0B1E00E9403
:101200005F0FA0E0B1E00C93E0E0F1E0ACE5B7E007
:101210000E94190F0E945B0E0E946A0E80910001CD
:10122000D2018C9381E00E949E0E8EE4D2018C93B9
:1012300081E00E949E0E0E943A04249682E00E9461
:101240009A0E83E0E1EAF3E001E00A93AAE0B1E05C
:101250000E94C60FAAE0B1E00E945F0FA0E0B1E0DB
:101260000C93E0E0F1E0ACE5B7E00E94190F0E94BA
:101270005B0E0E946A0E80910001D2018C9381E086
:101280000E949E0E80E3D2018C9381E00E949E0E0C
:101290000E943A04249682E00E949A0E84E0E1EAD9
:1012A000F3E001E00A93AAE0B1E00E94C60FAAE0D1
:1012B000B1E00E945F0FA0E0B1E00C93E0E0F1E04C
:1012C000ACE5B7E00E94190F0E945B0E0E946A0E07
:1012D00080910001D2018C9381E00E949E0E88E1F2
:1012E000D2018C9381E00E949E0E0E943A042496C3
:1012F00082E00E949A0E85E0E1EAF3E001E00A93C1
:10130000AAE0B1E00E94C60FAAE0B1E00E945F0F20
:10131000A0E0B1E00C93E0E0F1E0ACE5B7E00E94C2
:10132000190F0E945B0E0E946A0E80910001D2018B
:101330008C9381E00E949E0E82E0D2018C9381E02A
:101340000E949E0E0E943A04249682E00E949A0E09
:1013500085E4D2018C9381E00E949E0E0E94D0040D
:10136000229681E00E949A0EA0EAB2E0E6E7F2E25D
:101370000E94AE0EEAE3F4E0A0EAB2E00E94540E4E
:101380000E94C10FEAE3F4E0AAEDB3E00E94C10FAE
:10139000E2E0F0E0AAEDB3E07BE70E94DC0F0C9402
:1013A000D40985E08093A0030C94D90984E080934C
:1013B000A0030C94CC0AEAE8F2E20E94071011F0B4
:1013C0000C94210A0091E503023011F00C941C0AE0
:1013D000AAE3B4E00E945F0FA0E0B1E00C9300919B
:1013E0000001023010F00C94170A80E08093A003F3
:1013F00000910001003011F00C94010A2D980C941A
:10140000020A2D9AA0EAB2E0E2E9F2E20E94AE0EF0
:10141000A5E2B0E08C9185FBA0EAB2E00E94540EF8
:101420000E94ED0E8D9388278C930C941A0A83E00A
:101430008093A0030C941F0A84E08093A0030C9473
:10144000CC0AECE9F2E20E94071011F00C943B0A7E
:1014500080E08093A003A0EAB2E0E4EAF2E20E9416
:10146000AE0EE8EDF3E0A0EAB2E00E94540E0E9456
:10147000090F0C94CC0AE2EBF2E20E94071011F083
:101480000C94680A0091E503013011F00C94630A92
:1014900080E08093A003A0EAB2E0EAEBF2E20E94CF
:1014A000AE0EA1EAB3E0E6ECF2E20E94AE0EE1E09D
:1014B000F0E00E94740EA1EAB3E00E945D0E0E946B
:1014C0006A0E0C94660A84E08093A0030C94CC0A04
:1014D000E4EDF2E20E94071011F00C94B10A0091C1
:1014E000E503033011F00C94AC0A80E08093A00374
:1014F000A0EAB2E0ECEDF2E20E94AE0EA1EAB3E0A7
:10150000EEEEF2E20E94AE0EEAE3F4E0A1EAB3E00E
:101510000E94540E0E94C10FA1EAB3E00E94540E33
:10152000E4E7F2E20E94AE0EEFE4F4E0A1EAB3E0F9
:101530000E94540E0E94C10FA1EAB3E00E94540E13
:10154000E8EFF2E20E94AE0EA1EAB3E00E945D0E67
:101550000E946A0E0C94AF0A84E08093A0030C945E
:10156000CC0AECEFF2E20E94071011F00C94C90AC9
:1015700080E08093A00380E090E0A8EDB3E08D933D
:101580009C93A0EAB2E0E4E0F3E20E94AE0E0C9479
:10159000CC0A81E08093A0030C94D10A82E080936E
:1015A000A0030091A003003018F011F00C94DA0AA7
:1015B0000C94E60AE8E1F6E1A0EAB3E08C91992701
:1015C0000E94C90EA0EAB2E00E94AE0EA0EAB2E00C
:1015D0000E945D0E0E946A0E08950004080C10140B
:1015E000181C2024282C3034383C40000000000017
:1015F000010000000500000015000000550000007B
:101600005501000055050000551500005555000016
:1016100055550100777707004F4B00436F6D616EA2
:10162000646F206E6F207265636F6E6F6369646FA5
:10163000004C6F6E676974756420636F6D616E64D2
:101640006F206E6F2076616C696461004E756D6508
:10165000726F206465207573756172696F206E6F9B
:101660002076616C69646F004E756D65726F2064E1
:101670006520706172616D6574726F7320696E763A
:10168000616C69646F004572726F72206C6F6E6777
:101690006974756420706172616D6574726F203158
:1016A000004572726F72206C6F6E6769747564208A
:1016B000706172616D6574726F2032005061726189
:1016C0006D6574726F206E6F2076616C69646F0057
:1016D0004552524F5238004552524F522053442ED9
:1016E00020496E74656E7465206465206E7565763C
:1016F0006F000000BC00B800B400B000AC00A8004F
:10170000A400A0009C009800940090008C00880029
:10171000840080007C007800740070006C00680019
:10172000640060005C005800540050004C00480009
:10173000440040003C003800340030002C002800F9
:10174000240020001C001800140010000C000800E9
:101750000400000000007C017801740170016C013C
:101760006801640160015C015801540150014C01A1
:101770004801440140013C013801340130012C0191
:101780002801240120011C011801140110010C0181
:10179000080104010001FC00F800F400F000EC0076
:1017A000E800E400E000DC00D800D400D000CC0069
:1017B000C800C400C0000000F8FFFCFFFEFF0E00E0
:1017C0000E000E000E000E000E000E000E000E00A9
:1017D0000E000E000E00FEFFFCFFF8FF00000000F0
:1017E0000000000000000000FEFFFEFFFEFF1C00E6
:1017F00018001000000000000000000000000000C1
:10180000F87FFCFFFEFF0E800E800E800E800E80A3
:101810000E800E800E800E800E800E800E800E00D8
:101820000E000E00F87FFCFFFEFF0E800E800E8083
:101830000E800E800E800E800E800E800E800E00B8
:101840000E000E000E000E00FEFFFEFFFEFF0080E9
:101850000080008000800080008000800080008088
:10186000008000800080FCFFFCFFFCFF00000E00F9
:101870000E800E800E800E800E800E800E800E80F8
:101880000E800E800E800E800E80FEFFFEFFFEFF9B
:101890000000000000800E800E800E800E800E8002
:1018A0000E800E800E800E800E800E800E80FEFF59
:1018B000FCFFF8FFF8FFFCFFFEFF0E000E000E001D
:1018C0000E000E000E000E000E000E000E000E00A8
:1018D0000E000E000E000000F87FFCFFFEFF0E80E1
:1018E0000E800E800E800E800E800E800E800E8088
:1018F0000E800E800E80FEFFFCFFF87FF8FFFCFFDD
:10190000FEFF0E800E800E800E800E800E800E80F8
:101910000E800E800E800E800EC0FEFFFCFFF8FFD2
:1019200000000000000000000000000000000000B7
:1019300000000000000000000000000000000000A7
:101940000000000000000000000000000000000097
:101950000000000000000000000000000000000087
:10196000000000000000000000000000FF1FFF3F1B
:10197000FF7F0070007000700070007000700070D9
:1019800000700070FC7FFC7F0070FF7FFF3FFF1F37
:10199000000000000000000000000000FF7FFF7F4B
:1019A000FF7F0000000000000000000000000000B9
:1019B000000000000070007001700370037003707D
:1019C000037003700370037003700370037003707F
:1019D0000370FF7FFE7FFC7FF81FFC3FFF7F0370DB
:1019E000037003700370037003700370037003705F
:1019F000037000700070007000700070FF7FFF7F48
:101A0000FF7F030003000300030003000300030043
:101A100003000300030003000300030001000000B3
:101A2000FE1FFF3FFF7F037003700370037003709E
:101A3000037003700370037003700370037003700E
:101A400003700370FE1FFF3FFF7F0370037003707E
:101A500003700370037003700370037003700370EE
:101A60000370FF7FFF3FFF1FFF7FFF7FFF7F0000AF
:101A70000000000000000000000000000000000066
:101A8000000000000000000000000000FC1FFE3FFE
:101A9000FF7F0370037003700370037003700370A3
:101AA00003700370037003700370FF7FFE3FFC1F21
:101AB000FF1FFF3FFF7F037003700370037003700D
:101AC000037003700370037003700370037003707E
:101AD0000170000000000000000000000000000095
:101AE00000000000000000000000000000000000F6
:101AF00000000000000000000000001C003E007F0D
:101B0000007F003E001C00000000000000000000FC
:101B100000000000000000000000000000000E9423
:101B2000380270916E00716070936E00A1E1B1E0B7
:101B30008C9185FB16F00C94AE0D709111017F7D98
:101B400070931101ECE0F3E20E94630EAEECB5E09D
:101B50000E945D0E0E946A0E0E946205A1E1B1E042
:101B60008C9187FB16F00C940B0E709111017F770E
:101B7000709311010E94F503A2E1B1E08C918F5F97
:101B80008C93A2E1B1E00C914CE30E94F10F8C9395
:101B900000911201003011F00C940B0EA0EAB2E09B
:101BA000E2E1F3E20E94AE0EA0EAB2E00E94011070
:101BB000ADE0B1E08D9388278C93ADE0B1E0ED917D
:101BC000FC91A0EAB2E00E941B10A6E0B1E00D93E8
:101BD0001D932D933D93A0EAB2E00E94540EECE1D8
:101BE000F3E20E94AE0EE6E0F1E0A0EAB2E00E946D
:101BF000540E0E94920F8AE0A0EAB2E00E94540EB6
:101C00008D9388278C93EEE1F3E20E94630EA0EAA5
:101C1000B2E00E945D0E0C94960DED91FC91EF5F89
:101C2000FF4FFC93EE93089509D00E94A40E00FC90
:101C300010D0089503D01ED001F8F9CF0024E89405
:101C400057FF02C009D0689400F80BD010F80124A7
:101C5000089502D009D00895509540954F5F5F4F89
:101C60000895E89417FF0895009510950F5F1F4F92
:101C700068940895352F242FE894452B11F4689427
:101C80000895512F402F0027112780E1440F551F41
:101C9000001F111F021B130B416018F4020F131FCA
:101CA0004E7F8A9599F708958F938D918823E9F750
:101CB00011978F910895ACE5B7E08D91882311F0CD
:101CC0000CD0FBCF08950E94B40E802D11F005D0EA
:101CD000FACF08958DE001D08AE00090C00005FEA3
:101CE000FCCF8093C600089588EE93E00CD0319726
:101CF000D9F708953197F1F70895689462F8089537
:101D0000E89462F80895EF93FF93EE27E82BE92B10
:101D100031F0EDECFAE03197F1F70197D1F7FF914F
:101D2000EF91089501911191219130810895481A00
:101D3000590A0895481A8827580A089599275A92E7
:101D40004A92480E591E08950F92B801469F80018D
:101D5000479F100D569F100D0F9008950E94B40ECE
:101D60000D920020D9F70895C89531960020089566
:101D700091E005C092E003C094E001C098E0F4DF78
:101D80000D929A95E1F70895880F991FE80FF91FB2
:101D9000F1CF0196019721F00E94B40EE9F7FACF36
:101DA0000895819104D08D938823D9F708958136C1
:101DB00018F08B3708F48F7D089591E0882321F087
:101DC0008894991F8A95E9F7892F9095089588300E
:101DD00018F011968850FBCF089580E30EF4839598
:101DE0000895040F151F261F371F089504171507A0
:101DF000260737070895000F111F221F331F08956C
:101E000000951095209530950F5F1F4F2F4F3F4F36
:101E10000895019110810FC00E94920E0EC00E9481
:101E2000920E10C00191108117FF05C03FEF2FEFF8
:101E300004C0008111272227332737FF03C0E0DFCA
:101E40008DE28D93CF92DF92EF92AA24BB24CC2413
:101E5000DD24EE2440E2EAE0FF2755E093E38081B1
:101E6000890F87FD9F7083FD907F891B81935A9511
:101E7000A9F7C1DFAA1CBB1CCC1CDD1CEE1C4A95BB
:101E800051F7E894EFE0FF2782910CD0EB30E0F7B8
:101E90001EF068948A2D0AD088278D93EF90DF90EA
:101EA000CF900895982F829501D0892F8F70805DF3
:101EB00026F0803309F4089568948D9308950027DF
:101EC0001127222733271DD08A3328F4803318F0B6
:101ED00005D015D0F9CF0EF493CF089580538F938A
:101EE000402F512F622F732F86DF85DF7ADF83DF4C
:101EF0008F919927080F191F291F391F08958D9158
:101F00000895E894FCDF8032E9F38B32D9F389300D
:101F1000C9F38D3211F46894F2CF089541E003C003
:101F200042E001C044E0E40F8827F81F8291982F17
:101F3000829506D0892F04D04A95C1F70C94BE0F24
:101F40008F708A3008F0895F805D8D930895002737
:101F50001127222733278D91882379F04CDF4BDF1F
:101F60004ADF49DF24DF815408F4895F865F080F68
:101F70008827181F281F381FEECF089588278D93B4
:101F8000089581918D938823E1F7089509919191A6
:101F9000992359F08A95D9F73197002331F081912F
:101FA0008D930A958823C9F70895E8CFF999FECF54
:101FB000E1BDF2BD31960895F9DF8D917B3729F4AB
:101FC00080BDFA9AF99A8823B9F777270895EEDF4A
:101FD000F89A80B58D93882319F09A95C1F79D934F
:101FE0000895FF93881BF9E0001FFA9511F4FF9103
:101FF0000895881F841B18F4840F8894F5CF0894E3
:10200000F3CF8FEF83959D919923E1F7089568941D
:1020100001C0E894AF93BF938D9116F0919103C0E6
:102020000E94B40E902D891718F011F48823A1F79F
:10203000BF91AF9108950FEF1FEF2FEF3FEF60E2D9
:1020400073E888EB9DEE0D90002548E08894379565
:1020500027951795079520F406271727282739274E
:102060004A95A1F7319779F700951095209530950D
:102070000895689401C0E8942227102F231709F4CB
:10208000089526F40E94B40E802D01C08191803005
:1020900081F0891741F070E08D931A9591F723959F
:1020A00071E01D93EACF01D0E8CF703011F07727AF
:1020B0000895772331F42395882713958D931A95E6
:1020C000E9F708952A2A2A2A2A2A2A2A2A2A2A2A9B
:1020D00020445249564552206D617472697A204CF1
:1020E00045447320503130283152292D5637303134
:1020F00043202A2A2A2A2A2A2A2A2A2A2A2A000085
:1021000032342D30392D323032312031323A3335BC
:102110003A35330044525633325839362E42415301
:1021200000004E756D6D617472697A3D0000360075
:102130004C6F6E676275663D0000333834004C6F3B
:102140006E676461743D0000313932004C6F6E6718
:102150006461745F6D61735F756E6F3D000031394E
:1021600033004C6F6E676275665F6D61735F756E8D
:102170006F3D0000333835004E756D7478736572AD
:102180003D003936000050524543494F3D005253FF
:102190005420657370333200434E54527273743D51
:1021A00000005253544553503D30000052535445A3
:1021B00053503D310000533E00004C4545564657B4
:1021C000000056657273696F6E2046573A20466567
:1021D000636861203C003E2C204172636869766F21
:1021E000203C00003E0053455442554600004275D5
:1021F000666672616D28000029203D202648200077
:102200005345544345520000456E63657261722028
:102210006275666665720000534554444947000084
:10222000546573742044696769746F2000005345D6
:10223000544441540000536520636F6E66696775AE
:10224000726120427566646174612800293D000056
:10225000534554444952000047656E6572612064DD
:102260006972000053455450554E00005345545474
:10227000414200002C00244F4B2C000024455252B8
:1022800000005345545052450000534554455350A7
:10229000000052535445535033323D004C454545A0
:1022A00053500000436E747261636B657370333218
:1022B0003D004C45454B544200004C4545204B6584
:1022C000797320544200254C45454B54422C312C07
:1022D000322C33005345544B54420000456E76690E
:1022E0006F204B5442206120455350333200255318
:1022F00045544B54422C00002C31000041434B41CB
:10230000434B0000455350204F4B00005345523182
:102310003D0041434B2C312C322C3300260025004C
:00000001FF
